:020000040000fa
:080000000002040000000000f2
:020000040000fa
:0400080012030000df
:020000040000fa
:04000c0024030000c9
:020000040000fa
:040010003c030000ad
:020000040000fa
:040014001a030000cb
:020000040000fa
:040018002c030000b5
:020000040000fa
:04001c0034030000a9
:020000040000fa
:040020004403000095
:020000040000fa
:04002400dc040000f8
:020000040000fa
:04002800dc040000f4
:020000040000fa
:04002c00dc040000f0
:020000040000fa
:04003000dc040000ec
:020000040000fa
:04003400dc040000e8
:020000040000fa
:04003800dc040000e4
:020000040000fa
:04003c00dc040000e0
:020000040000fa
:04004000dc040000dc
:020000040000fa
:04004400dc040000d8
:020000040000fa
:04004800860300002b
:020000040000fa
:04004c00dc040000d0
:020000040000fa
:04005000dc040000cc
:020000040000fa
:040054001e04000086
:020000040000fa
:04005800bc030000e5
:020000040000fa
:04005c00dc040000c0
:020000040000fa
:04006000dc040000bc
:020000040000fa
:04006400dc040000b8
:020000040000fa
:04006800be040000d2
:020000040000fa
:04006c00a0040000ec
:020000040000fa
:04007000dc040000ac
:020000040000fa
:04007400dc040000a8
:020000040000fa
:04007800dc040000a4
:020000040000fa
:04007c00dc040000a0
:020000040000fa
:04008000dc0400009c
:020000040000fa
:04008400dc04000098
:020000040000fa
:04008800dc04000094
:020000040000fa
:04008c00dc04000090
:020000040000fa
:04009000dc0400008c
:020000040000fa
:04009400dc04000088
:020000040000fa
:04009800dc04000084
:020000040000fa
:04009c00dc04000080
:020000040000fa
:0400a000dc0400007c
:020000040000fa
:0400a400dc04000078
:020000040000fa
:0400a800dc04000074
:020000040000fa
:0400ac00dc04000070
:020000040000fa
:0400b000dc0400006c
:020000040000fa
:0400b400dc04000068
:020000040000fa
:0400b800dc04000064
:020000040000fa
:0400bc00dc04000060
:020000040000fa
:0400c000dc0400005c
:020000040000fa
:0400c400dc04000058
:020000040000fa
:0400c800dc04000054
:020000040000fa
:0400cc00dc04000050
:020000040000fa
:0400d000dc0400004c
:020000040000fa
:0400d400dc04000048
:020000040000fa
:0400d800dc04000044
:020000040000fa
:0400dc00dc04000040
:020000040000fa
:0400e000dc0400003c
:020000040000fa
:0400e400dc04000038
:020000040000fa
:0400e800dc04000034
:020000040000fa
:0400ec00dc04000030
:020000040000fa
:0400f000dc0400002c
:020000040000fa
:0400f400dc04000028
:020000040000fa
:0400f800dc04000024
:020000040000fa
:0400fc00dc04000020
:020000040000fa
:04010000dc0400001b
:020000040000fa
:04010400dc04000017
:020000040000fa
:04010800dc04000013
:020000040000fa
:04010c00dc0400000f
:020000040000fa
:04011000dc0400000b
:020000040000fa
:04011400dc04000007
:020000040000fa
:04011800dc04000003
:020000040000fa
:04011c00dc040000ff
:020000040000fa
:04012000dc040000fb
:020000040000fa
:04012400dc040000f7
:020000040000fa
:04012800dc040000f3
:020000040000fa
:04012c008a04000041
:020000040000fa
:04013000dc040000eb
:020000040000fa
:04013400dc040000e7
:020000040000fa
:04013800dc040000e3
:020000040000fa
:04013c00dc040000df
:020000040000fa
:04014000dc040000db
:020000040000fa
:04014400dc040000d7
:020000040000fa
:04014800dc040000d3
:020000040000fa
:04014c00dc040000cf
:020000040000fa
:04015000dc040000cb
:020000040000fa
:04015400dc040000c7
:020000040000fa
:04015800dc040000c3
:020000040000fa
:04015c00dc040000bf
:020000040000fa
:04016000dc040000bb
:020000040000fa
:04016400dc040000b7
:020000040000fa
:04016800dc040000b3
:020000040000fa
:04016c00dc040000af
:020000040000fa
:04017000dc040000ab
:020000040000fa
:04017400dc040000a7
:020000040000fa
:04017800dc040000a3
:020000040000fa
:04017c00dc0400009f
:020000040000fa
:04018000dc0400009b
:020000040000fa
:04018400dc04000097
:020000040000fa
:04018800dc04000093
:020000040000fa
:04018c00dc0400008f
:020000040000fa
:04019000dc0400008b
:020000040000fa
:04019400dc04000087
:020000040000fa
:04019800dc04000083
:020000040000fa
:04019c00dc0400007f
:020000040000fa
:0401a000dc0400007b
:020000040000fa
:0401a400dc04000077
:020000040000fa
:0401a800dc04000073
:020000040000fa
:0401ac00dc0400006f
:020000040000fa
:0401b000dc0400006b
:020000040000fa
:0401b400dc04000067
:020000040000fa
:0401b800dc04000063
:020000040000fa
:0401bc00dc0400005f
:020000040000fa
:0401c000dc0400005b
:020000040000fa
:0401c400dc04000057
:020000040000fa
:0401c800dc04000053
:020000040000fa
:0401cc00dc0400004f
:020000040000fa
:0401d000dc0400004b
:020000040000fa
:0401d400dc04000047
:020000040000fa
:0401d800dc04000043
:020000040000fa
:0401dc00dc0400003f
:020000040000fa
:0401e000dc0400003b
:020000040000fa
:0401e400dc04000037
:020000040000fa
:0401e800dc04000033
:020000040000fa
:0401ec00dc0400002f
:020000040000fa
:0401f000dc0400002b
:020000040000fa
:0401f400dc04000027
:020000040000fa
:0401f800dc04000023
:020000040000fa
:0401fc00dc0400001f
:020000040000fa
:04020000dc0400001a
:020000040000fa
:04020400dc04000016
:020000040000fa
:04020800dc04000012
:020000040000fa
:04020c00dc0400000e
:020000040000fa
:04021000dc0400000a
:020000040000fa
:04021400dc04000006
:020000040000fa
:04021800dc04000002
:020000040000fa
:04021c00dc040000fe
:020000040000fa
:04022000dc040000fa
:020000040000fa
:04022400dc040000f6
:020000040000fa
:04022800dc040000f2
:020000040000fa
:04022c00dc040000ee
:020000040000fa
:04023000dc040000ea
:020000040000fa
:04023400dc040000e6
:020000040000fa
:04023800dc040000e2
:020000040000fa
:04023c00dc040000de
:020000040000fa
:04024000dc040000da
:020000040000fa
:04024400dc040000d6
:020000040000fa
:04024800dc040000d2
:020000040000fa
:04024c00dc040000ce
:020000040000fa
:04025000dc040000ca
:020000040000fa
:04025400dc040000c6
:020000040000fa
:04025800dc040000c2
:020000040000fa
:04025c00dc040000be
:020000040000fa
:04026000dc040000ba
:020000040000fa
:04026400dc040000b6
:020000040000fa
:04026800dc040000b2
:020000040000fa
:04026c00dc040000ae
:020000040000fa
:04027000dc040000aa
:020000040000fa
:04027400dc040000a6
:020000040000fa
:04027800dc040000a2
:020000040000fa
:04027c00dc0400009e
:020000040000fa
:04028000dc0400009a
:020000040000fa
:04028400dc04000096
:020000040000fa
:04028800dc04000092
:020000040000fa
:04028c00dc0400008e
:020000040000fa
:04029000dc0400008a
:020000040000fa
:04029400dc04000086
:020000040000fa
:04029800dc04000082
:020000040000fa
:04029c00dc0400007e
:020000040000fa
:0402a000dc0400007a
:020000040000fa
:0402a400dc04000076
:020000040000fa
:0402a800dc04000072
:020000040000fa
:0402ac00dc0400006e
:020000040000fa
:0402b000dc0400006a
:020000040000fa
:0402b400dc04000066
:020000040000fa
:0402b800dc04000062
:020000040000fa
:0402bc00dc0400005e
:020000040000fa
:0402c000dc0400005a
:020000040000fa
:0402c400dc04000056
:020000040000fa
:0402c800dc04000052
:020000040000fa
:0402cc00dc0400004e
:020000040000fa
:0402d000dc0400004a
:020000040000fa
:0402d400dc04000046
:020000040000fa
:0402d800dc04000042
:020000040000fa
:0402dc00dc0400003e
:020000040000fa
:0402e000dc0400003a
:020000040000fa
:0402e400dc04000036
:020000040000fa
:0402e800dc04000032
:020000040000fa
:0402ec00dc0400002e
:020000040000fa
:0402f000dc0400002a
:020000040000fa
:0402f400dc04000026
:020000040000fa
:0402f800dc04000022
:020000040000fa
:0402fc00dc0400001e
:020000040000fa
:04030000dc04000019
:020000040000fa
:04030400dc04000015
:020000040000fa
:04030800dc04000011
:020000040000fa
:04030c00dc0400000d
:020000040000fa
:04031000dc04000009
:020000040000fa
:100400002f1121000eff24000e01880000000000c3
:10041000000020000000e000020032000001200087
:100420002002880014000700650107000000e000ba
:1004300003003a00009f2100010020000200370065
:100440000000200001002000810f70000100320038
:100450000f000700000020000000e0000200320052
:100460000000020000000000380702000000000049
:100470000040da000000fe00200020000000e00044
:1004800002003200100020009001880000000600e9
:10049000a1028800800478000000eb001f003700f4
:1004a000e284440054a0b4009905ba00e2844400f8
:1004b00054a0b4009906ba00e284440054a0b400e9
:1004c0000006eb00476fde00fd07b200ae018800ba
:1004d000636ce10003003a000ad801000000eb0061
:1004e0000e003700606ce10008003a00004deb00a0
:1004f0000a05e800020039003420ec000af0a000f0
:100500008b05e900f9ff3e00040037006168e10057
:10051000010032000086eb000b00070019c7ba008b
:100520000e04e0001905ba0003003a000a00e000da
:10053000dbff3a0000000600fe07b200ae028800b2
:100540008a047800f5ff37000cd0a300e20f4d00bd
:100550001c00390089027800354dba000a05e80010
:10056000020039003420ec000af0a0008b05e900fd
:100570000f003200254dba000a05e80002003900dc
:100580003420ec000af0a0008b05e90008003200de
:100590000c00e0000600320015cdba000a05e800a4
:1005a000020039003420ec000af0a0008b05e900bd
:1005b0008984e80054a0b4000b00e000e2ff3a0098
:1005c000000006009902ba00055d78008b05e9007d
:1005d000f7ff3200c82ade00055d78008b05e900d0
:1005e000f3ff32000c00e000f1ff320019ddba0029
:1005f000eeff370070180400000000006c1a0400c1
:1006000000000000fc0a0400000000001a0b0400b7
:10061000000000000c1204000000000000070400ad
:10062000000000003600f800c028a9000000eb0020
:100630003f0c07003600f800410c0700c048a90035
:10064000100020003a0c07003600f800c068a9002e
:1006500020002000360c07003600f800c088a900f2
:1006600030002000320c07003600f800c0a8a900b6
:10067000400020002e0c07003600f800c608a90034
:10068000700020002a0c07003600f8002146800088
:1006900000102000008060000000e0000300320035
:1006a000c508a900c0002000210c070021468000d9
:1006b00000002800008060000000e000030032001d
:1006c000c5e8a90080002000190c07002146800021
:1006d00000022000008060000000e0000300320003
:1006e000c4a8a90090002000110c0700204680003b
:1006f000700060000000e00003003200c488a90020
:10070000a00020000a0c0700ffff37003600f800a9
:10071000809fbe00829fbe00849fbe00869fbe0059
:100720000000fa00708280000000e0000200320049
:10073000708280000000010010112100104078003c
:100740008040e800101121000148780000112100cc
:1007500011c0b300014878000108a9000080fa0028
:100760004f03be004f02be004f01be004f00be004f
:100770003600f900004006003600f800809fbe00f9
:10078000829fbe00849fbe00869fbe000000fa00cc
:10079000d08180000000e00002003200d0818000a3
:1007a00000000100b1818000a0818000808f500096
:1007b00002003a002188a900190037000188a90029
:1007c00010003700b0818000904078008180fb00ed
:1007d000211188000000e800b0818800b18180000c
:1007e00030102100808f500002003a00a00f21003d
:1007f000b0818800b1818000a0818000808f50008e
:1008000006003200111180000020200000806000ee
:100810000000e000ebff32000100370000000000a4
:100820000080fa004f03be004f02be004f01be0021
:100830004f00be003600f900004006003600f80008
:10084000809fbe00829fbe00849fbe00869fbe0028
:100850000000fa00e08180000000e00002003200a9
:10086000e0818000000001000168a9001e0037003f
:10087000808180003111800081407800014878003b
:1008800081818000b0102100808f5000090032006b
:10089000808180008000e80090818000808f50007f
:1008a00004003200808180000000e8008081880020
:1008b0000d00370081818000b0102100808f500032
:1008c00007003a009181800030102100808f500095
:1008d00003003200301021008081880002003700c0
:1008e00010c0b30038f0b700101180006100600044
:1008f0000000e000deff3a000080fa004f03be0077
:100900004f02be004f01be004f00be003600f9008e
:1009100000400600801f78000000fa0010118000df
:10092000620060000000e000010032002222a90005
:100930000828a9000080fa004f0078000040060057
:100940003600f800809fbe00829fbe00849fbe00dc
:10095000869fbe000000fa00408280000000010077
:100960000080fa004f03be004f02be004f01be00e0
:100970004f00be003600f900004006003600f800c7
:10098000809fbe00829fbe00849fbe00869fbe00e7
:100990000000fa0050828000000001000080fa0090
:1009a0004f03be004f02be004f01be004f00be000d
:1009b0003600f900004006000040da000000fe00aa
:1009c0000000050080007800010178003104e0009b
:0c09d000fdff3a0000005100000006008e
:020000040000fa
:1009dc000200fa00000f78001e007800e10f5000b2
:1009ec0009003200e10f500005003900e20f500001
:1009fc0007003200e30f50000700320008003700f8
:100a0c0001eba8000600370011eba800040037002a
:100a1c0021eba8000200370031eba8000000000019
:100a2c000080fa00000006000400fa00000f7800b5
:100a3c00110798001e007800e10f50000b003200e7
:100a4c00e10f500005003900e20f50000b0032009e
:100a5c00e30f50000d003200100037009e00900094
:100a6c0021588800062bef000c0037009e009000e8
:100a7c00a1588800162bef00080037009e0090004c
:100a8c0021598800262bef00040037009e009000af
:100a9c00a1598800362bef00000000000080fa00fe
:100aac00000006000400fa00000f780011079800ff
:100abc001e007800e10f50000a003200e10f5000d8
:100acc0005003900e20f500009003200e30f50001e
:100adc000a0032000c0037009e009000615888001c
:100aec00090037009e009000e1588800060037008e
:100afc009e00900061598800030037009e00900012
:100b0c00e1598800000000000080fa000000060097
:100b1c000000fa000060fe000080fa0000000600f1
:100b2c001200fa00600121009000780060012100a1
:100b3c0011009800600121009000900060012100dc
:100b4c002100980060012100a000900060012100ac
:100b5c0031009800e001210030079800600021006e
:100b6c0040079800e0002100500798006001210028
:100b7c006007980019eea800003d2000010020003d
:100b8c00da0a070019eea9000040eb002047980094
:100b9c005c0037000040eb00404798004e0090008e
:100bac0090407800614f98004e0090000000e800e3
:100bbc00400798005e00900090407800714f9800bc
:100bcc005e0090000000e800500798006e00900056
:100bdc0090407800015798006e0090000000e800eb
:100bec006007980000c8b300504798000040eb0025
:100bfc00304798003700370000002400000f7800c1
:100c0c00ee4890005e40900000c060000004e000e0
:100c1c00020032001ed0a000010037001ed0a1003f
:100c2c00fe4890005e40900000c060000004e000b0
:100c3c00020032001ec0a000010037001ec0a1003f
:100c4c008e5090005e40900000c060000004e000f8
:100c5c00020032001eb0a000010037001eb0a1003f
:100c6c009e007800c1708800100d2000010020004b
:100c7c009e0a07005e4090000080fb000000d1003f
:100c8c00504798004e40900000404000404798006c
:100c9c001ee0a1009e007800c1708800b170800039
:100cac0000402000008060000000e00003003200e3
:100cbc004e4090000040e80040479800100d200086
:100ccc0001002000890a07003e4090000040e80027
:100cdc00304798003e409000e74f5000c6ff36006a
:100cec003e009000ce409000014878003e009000fd
:100cfc000000e800300798002e4090000040e8000b
:100d0c00204798002e409000e74f5000a1ff36007e
:100d1c0019aea900198ea900196ea9000080fa005d
:100d2c00000006000200fa00890507001047980031
:100d3c001e409000ef4f500002003e000040eb00c0
:100d4c002a0037000040eb00004f78000e003700ff
:100d5c001e80fb0063004000210521000080400044
:100d6c00904078001e80fb00c21021000000410062
:100d7c001040780080cf5000020032000040eb00a1
:100d8c001a0037001e4fe8001e407800e34f500059
:100d9c00efff3600f005210010407800e84f5000be
:100dac00020032000040eb00100037000040eb0066
:100dbc00004f7800090037001e80fb009e80fb006e
:100dcc00220521008100410091407800220721007a
:100ddc0000004100014878001e4fe8001e407800da
:100dec00f74f5000f4ff360010c0b3000080fa003b
:100dfc00000006000000fa00608180000000e000a6
:100e0c0003003200608180000000e90060818800ee
:100e1c0043ff07000080fa00000006000000fa0003
:100e2c0060002100c15122000108780060002100ff
:100e3c00418a2300310098000080fa00000006006f
:100e4c000000fa0060002100019d230001087800d9
:100e5c0060002100013f2200310098000080fa0060
:100e6c00000006001400fa00889fbe00e609070087
:100e7c00c0202100e001070001c2b30020052100c1
:100e8c0026050700007020009508070010002000c0
:100e9c00cffe0700003020008000780010002000fa
:100eac0000ff0700000021008000780010002000e7
:100ebc00ddfe070040ba2700a10620000b0a070040
:100ecc0080c0b300b70407002a70ef000040eb00ad
:100edc00004f78000040eb00104798000000eb003a
:100eec00200798000040eb002047980009003700cd
:100efc002e4090000080fb00210721000080400064
:100f0c008040eb00014878002e4090000040e80043
:100f1c00204798002e409000f74f5000f4ff360009
:100f2c000040eb0020479800110037002e40900045
:100f3c000080fb00610021000000400000804000a8
:100f4c0001ee2200010878002e4090000080fb008a
:100f5c00e1002100000040000080400001ee220072
:100f6c00010878002e4090000040e80020479800cf
:100f7c002e409000e34f5000ecff36000040eb0099
:100f8c00604798000040eb00704798000040eb0071
:100f9c00004f98000040eb00104f9800dcfe07005b
:100fac000000eb00000f98000000eb0020079800f9
:100fbc00090037005bff07000004e0000b003a005b
:100fcc008009210011002000c80907002e009000a4
:100fdc000000e80020079800ae009000703e200052
:100fec00808f5000f3ff3600010037000000000036
:100ffc00db0407000040eb00204798000a00370094
:10100c002e4090000080fb00610121000000400098
:10101c00008040008000eb00010878002e4090001a
:10102c000040e800204798002e409000e34f50000d
:10103c00f3ff3600ae009000703e2000808f500011
:10104c00140036000040eb002047980009003700e0
:10105c002e4090000080fb00210721000080400002
:10106c008040eb00014878002e4090000040e800e2
:10107c00204798002e409000f74f5000f4ff3600a8
:10108c000040eb00004f780010c0b30010479800f0
:10109c00d300370040072100104f7800d007210003
:1010ac0090407800114798004008210010407800cb
:1010bc000080fb0050079800de009000f003200039
:1010cc008088b9008000780000f620000080400085
:1010dc0050079800600021005e01900012009800fb
:1010ec0050082100104078000080fb005007980049
:1010fc00de009000f00320008088b90080007800aa
:10110c0000f620000080400050079800600021008d
:10111c005e029000240098006008210010407800c6
:10112c000080fb0050079800de009000f0032000c8
:10113c008088b9008000780000f620000080400014
:10114c0050079800e0002100de009000110098008c
:10115c0060082100104078000080fb0050079800c8
:10116c005e009000700fb0004500dd005007980045
:10117c00e00021005e01900002087800b070800051
:10118c00640060000000e0000300320010c0b300f7
:10119c0060479800020037000040eb006047980061
:1011ac00b0708000680060000000e00003003200b6
:1011bc0010c0b30070479800020037000040eb00ed
:1011cc0070479800b0708000700060000000e00074
:1011dc00030032000040eb00004f98000200370083
:1011ec0010c0b300004f98002870ef0010082100c9
:1011fc00104078000080fb00700060000000e000f0
:10120c005d003a0010c0b30028f0b70029d0bf0031
:10121c000004e0000b003a000e4890000004e000cf
:10122c000300320050c0b3002ef0b7006c00370042
:10123c00400120006081880010c0b3002ef0b70080
:10124c00670037007e4090000004e000020032008e
:10125c00fbfe0700620037002ed0bf00e14f5000ac
:10126c0009003a00edfe0700608180000000e000fc
:10127c005b003a00400120006081880020c0b30070
:10128c002ef0b700560037002ed0bf00e24f5000b2
:10129c0007003a00eafe0700608180000000e000d1
:1012ac004f003a0030c0b3002ef0b7004c003700ae
:1012bc002ed0bf00e34f500009003a000e489000ba
:1012cc000004e0000300320050c0b3002ef0b70061
:1012dc004300370040c0b3002ef0b7004000370089
:1012ec002ed0bf00e44f500004003a00044ea90079
:1012fc0010c0b300104f9800390037002ed0bf003b
:10130c00e54f50000f003a00044ea8006e409000cc
:10131c000004e00032003200100821001040780078
:10132c008080fb0000022000008060000000e000d4
:10133c002b003200046ea80060c0b3002ef0b70082
:10134c00270037006e4090000004e00024003200bb
:10135c0010082100104078008080fb000002200063
:10136c00008060000000e0001d003200046ea80048
:10137c00044ea9001a003700044ea9002ed0bf005d
:10138c00e14f500009003a00a4fe07006081800084
:10139c000000e00012003a0040012000608188004b
:1013ac0020c0b3002ef0b7000d0037002ed0bf00c8
:1013bc00e24f500006003a00a1fe07006081800059
:1013cc000000e00006003a002e70ef000400370029
:1013dc000040eb00104f98002e70ef0098fe0700b5
:1013ec00cffd0700a0082100600798006e00900058
:1013fc008040eb00014878006e0090000000e8008f
:10140c0001cab300014878006e0090000080e8002b
:10141c001e4878006e0090006300400080c0eb0016
:10142c00014878006e009000640040001e4290005d
:10143c0004487800208080008000eb00927c220021
:10144c008289b900e002b9008401780003014100ef
:10145c00937c22000300b800010141008200780057
:10146c004409dd004c04de0008047100cc8cde0065
:10147c0078079800fe009000d0cc2c000008b80033
:10148c004308de00100f98007e019000d0cc2c0099
:10149c000010b8004308de00ea00b900000051005b
:1014ac00e40f5000030036001e0890000000e80016
:1014bc00100f98006e00900065004000be50900028
:1014cc00014878006e00900066004000ae5090001d
:1014dc00014878006e4090000004e00003003200e8
:1014ec000e08900000f0a000000f98007e409000c5
:1014fc000004e000030032000e08900000e0a000a1
:10150c00000f98001e4890000004e0000300320019
:10151c000e08900000d0a000000f98006e00900004
:10152c00670040008e509000014878006e009000db
:10153c00680040009e50900001487800ee0090003a
:10154c0090c0b3008a03070028d0bf0029f0b70071
:10155c0092fe37000000fa002188a9002168a9003a
:10156c0080002000001188002222ef00600920007a
:10157c0040118800a00f2100b0818800a00f21002d
:10158c00a08188003010210090818800301021004b
:10159c00808188003870ef00c0af20000700070082
:1015ac00a0b12000140007002168a80021e2a800c7
:1015bc002342a8000080fa00000006000200fa0096
:1015cc00000f78001e0078000000e00003003a00d5
:1015dc00c0af2000d0818800020037001e007800c8
:1015ec00d08188000080fa00000006000000fa009c
:1015fc000080fa00000006000200fa00000f7800dc
:10160c001e0078000000e00003003a00a0b12000aa
:10161c00e0818800020037001e007800e08188001d
:10162c000080fa00000006000000fa000080fa00ba
:10163c00000006000200fa000040eb00004f7800aa
:10164c00000000009181800080818000808f50001c
:10165c00fcff320090818000104f78009081800058
:10166c000000e8009081880091818000c01021006a
:10167c00808f500002003a003010210090818800c9
:10168c001e4078000080fa00000006000200fa00fc
:10169c00004f7800000000001c0007000004a200ae
:1016ac000004e000fcff3a00a08180001e48780096
:1016bc00a08180000000e800a0818800a18180004a
:1016cc0030102100808f500002003a00a00f210042
:1016dc00a08188002188a8000080fa000000060084
:1016ec000000fa00918180008081800000806800f9
:1016fc0000f0a7000000ea000000ea004f00de0046
:10170c00004078000080fa00000006000400fa0097
:10171c00b181800011079800a18180001e0090000b
:10172c00808f5000060031009e009000a081800048
:10173c00008050000000e900000f78000500370021
:10174c009e009000a0818000008050006800400046
:10175c00000f78001e00780000f0a7000000ea00df
:10176c000000ea004f00de00004078000080fa0024
:10177c00000006000000fa00a1818000b08180000a
:10178c00808f500009003a001111800000102000d9
:10179c000080600000f0a7000000ea000000ea00f2
:1017ac004f00de0000407800010037000040eb00e5
:1017bc000080fa00000006000400fa00818180001d
:1017cc0011079800908180009e009000808f50003f
:1017dc00060031009e009000908180000080500037
:1017ec0069004000000f7800040037009e00900054
:1017fc009081800000805000000f7800f00f2000d6
:10180c009e007800808f50000200360000c0eb0074
:10181c00020037001e007800004078000080fa00bb
:10182c00000006000400fa00b18180001107980046
:10183c00a18180001e009000808f500006003100b6
:10184c009e009000a0818000008050000000e90004
:10185c00000f7800050037009e009000a0818000ea
:10186c000080500068004000000f7800f00f20004e
:10187c009e007800808f50000200360000c0eb0004
:10188c00020037001e007800004078000080fa004b
:10189c00000006000800fa002007980031079800a5
:1018ac00c5ff07000080fb00000f78003e00900091
:1018bc009e0f500002003100be009000010f780016
:1018cc000000eb00100798000900370059ff0700d3
:1018dc00ae009000804878002e0090000000e800d8
:1018ec00200798001e0090000000e80010079800e8
:1018fc001e0090009e0f5000f4ff39001e0078006f
:10190c000080fa00000006000800fa00200798008a
:10191c0031079800c3ff07000080fb00000f780020
:10192c003e0090009e0f500002003100be0090005f
:10193c00010f78000000eb00100798000900370039
:10194c002e00900010407800ae0090008100e8005e
:10195c00210798004dff07001e0090000000e800d2
:10196c00100798001e0090009e0f5000f4ff3900e5
:10197c001e0078000080fa00000006000400fa0047
:10198c000000eb00000f78008bff07002047980049
:10199c00a4ff0700304798002e4090000080fb0009
:1019ac000000e00003003200e90f50000300320099
:1019bc00040037001e20a000040037001e00a00009
:1019cc00020037001e10a000000000003e409000f6
:1019dc000080fb000000e00003003200e90f500023
:1019ec0003003200040037001e30a0000200370054
:1019fc001e40a000000000001e0078000080fa00cd
:101a0c00000006000400fa00100798009181800085
:101a1c001e009000008f4000020037009e007800ee
:101a2c00698f5000c01021009e007800808f5000fc
:101a3c00faff3e001e007800104078000080fa008b
:101a4c00000006000000fa005bff07000080fb00ae
:101a5c000000e9004f00de00004078000080fa0032
:101a6c00000006000000fa006eff07000080fb007b
:101a7c000000e9004f00de00004078000080fa0012
:101a8c00000006000000fa00101180000080fa002f
:101a9c00000006000000fa0062ff07000004e000ee
:101aac0010003200b1818000a0818000808f500036
:101abc0006003600b081800080007800a081800094
:101acc00008050000000e90007003700b081800062
:101adc0080007800a08180000080500068004000e9
:101aec00010037000000eb000080fa000000060047
:101afc000000fa0030ff07000004e0001000320084
:101b0c009181800080818000808f5000060036001b
:101b1c0090818000800078008081800000805000df
:101b2c000000e900070037009081800080007800f9
:101b3c008081800000805000680040000100370068
:101b4c000000eb000080fa00000006000000fa0024
:101b5c0021e2a8002342a8000080fa000000060041
:101b6c000000fa0021e2a9002342a9000080fa003b
:101b7c00000006000000fa0001e2a9000080fa0053
:101b8c00000006000000fa002228a9002208a90083
:101b9c000080fa00000006000000fa0010418000ee
:101bac00620060000000e00004003a001041800078
:101bbc00610060000000e000020032001000200014
:101bcc00010037000000eb00004078000080fa00b4
:101bdc00000006000000fa002228a9002208a90033
:101bec000080fa00000006000000fa000228a9009c
:101bfc000208a9000080fa00000006000000fa00ac
:101c0c000228a8000208a8000080fa0000000600c4
:101c1c000200fa00000f78001040800062006000a3
:101c2c000000e00010003a001040800061006000ed
:101c3c000000e0000c003a001040800062006000e0
:101c4c000000e00008003a001040800061006000d5
:101c5c000000e00004003a0020b421000100200044
:101c6c00a2060700f4ff37000080fa00000006000f
:101c7c000000fa00011080000000280000806000c5
:101c8c000000e00007003a000422ef0000002800ea
:101c9c0000108800b01520005010880010c0b30050
:101cac00010037000040eb000080fa000000060045
:101cbc000000fa0001108000000028000080600085
:101ccc000000e00006003a000222a8000202a80070
:101cdc0000c2a80001e2a80010c0b3000100370048
:101cec000040eb000080fa00000006000000fa0043
:101cfc000080fa00000006000000fa000002a800b4
:101d0c000080fa00000006000000fa000022a80083
:101d1c000080fa00000006000000fa000042a80053
:101d2c000080fa00000006000000fa00201080007d
:101d3c004f00de00004078000080fb0000f0a700a0
:101d4c000000ea000000ea004f00de0000407800ce
:101d5c000080fa00000006000000fa000062a800f3
:101d6c000080fa00000006000000fa0070108000ed
:101d7c00004078000080fa00000006000200fa0023
:101d8c00004f78001e80fb00601088000080fa0075
:101d9c00000006000000fa0000a2a9000082a800c2
:101dac000080fa00000006000000fa0000a2a80063
:101dbc000082a8000080fa00000006000000fa0073
:101dcc000182a8000080fa00000006000000fa0062
:101ddc0020108000620060000000e00004003a0067
:101dec0020108000610060000000e0000200320062
:101dfc0010002000010037000000eb0000407800cc
:101e0c000080fa00000006000000fa00201080009c
:101e1c004300de00614060000080fb0000f0a70082
:101e2c000000ea000000ea004f00de0000407800ed
:101e3c000080fa00000006000000fa00211080006b
:101e4c00000220000080600000f0a7000000ea0003
:101e5c000000e9004f00de00004078000080fa002e
:101e6c00000006000000fa00201080004400de0094
:101e7c00614060000080fb0000f0a7000000ea0059
:101e8c000000ea004f00de00004078000080fa00fd
:101e9c00000006000000fa00201080004500de0063
:101eac00614060000080fb0000f0a7000000ea0029
:101ebc000000ea004f00de00004078000080fa00cd
:101ecc00000006000000fa00201080004200de0036
:101edc00614060000080fb0000f0a7000000ea00f9
:101eec000000ea004f00de00004078000080fa009d
:101efc00000006000000fa000542a9000080fa006c
:101f0c00000006000000fa0002a2a8000080fa00ff
:101f1c00000006000000fa0002a2a9000080fa00ee
:101f2c00000006000000fa0002c2a8000080fa00bf
:101f3c00000006000000fa0002c2a9000080fa00ae
:101f4c00000006000200fa00000f78009e007800e6
:101f5c00318288000080fa00000006000200fa00be
:101f6c00000f78009e007800418288000080fa0003
:101f7c00000006000200fa00000f78009e007800b6
:101f8c00518288000080fa00000006000200fa006e
:101f9c00004f780010c0b300570007000000e000ad
:101fac0002003200100020000b00370080092100d5
:101fbc0011002000cd05070000c8b3009e4078003a
:101fcc0080cf500002003a001000200002003700c1
:101fdc001e407800480007000080fa000000060050
:101fec000600fa0020079800d30207000000e0006a
:101ffc0002003200100020003d003700c0c7b300c3
:10200c00ea0207000000e00002003200100020008d
:10201c003700370028030700e24f500002003a0057
:10202c0010002000320037002e00900062fa0700ea
:10203c002047980010c0b3001047980027003700c5
:10204c0000ccb300004f78009e4090002e409000d2
:10205c0080cf500002003a0000c4b300004f78005b
:10206c001e407800d10207000000e00002003200a0
:10207c00100020001e0037000f030700e24f500035
:10208c0002003a0010002000190037002e009000ca
:10209c0010407800004f78002e0090000000e800ff
:1020ac00200798001e407800c00207000000e000e6
:1020bc0002003200100020000d003700fe02070065
:1020cc00e24f500002003a001000200008003700d8
:1020dc001e4090000040e800104798009e40900081
:1020ec002e40900080cf5000d5ff3400a202070094
:1020fc000080fa00000006000200fa00004f780091
:10210c008d0207000000e0000200320010002000e9
:10211c0022003700c0c7b300a40207000000e00093
:10212c0002003200100020001c003700e202070001
:10213c00e24f500002003a00100020001700370058
:10214c000040eb00990207000000e00002003200a2
:10215c001000200011003700d7020700e24f50009a
:10216c0002003a00100020000c0037001e407800de
:10217c008e0207000000e000020032001000200078
:10218c0006003700cc020700e24f500002003a0074
:10219c001000200001003700770207000080fa00d1
:1021ac00000006000200fa00004f7800b07d290004
:1021bc00a10220004d05070080c3b300ceff07002d
:1021cc000000e00002003200100020005100370037
:1021dc00d0822000010020004405070090c3b3000a
:1021ec00c5ff07000000e0000200320010002000d4
:1021fc0048003700d0822000010020003b0507007a
:10220c0040c1b300bcff07000000e0000200320038
:10221c00100020003f003700d08220000100200079
:10222c00320507009e4078006fc060000047b00088
:10223c00b1ff07000000e000020032001000200097
:10224c0034003700d0822000010020002705070051
:10225c001e80fb004400de00004078004045b000ca
:10226c00a5ff07000000e000020032001000200073
:10227c0028003700d0822000010020001b05070039
:10228c00c0c6b3009cff07000000e0000200320053
:10229c00100020001f00370090742f00410d20000b
:1022ac001205070080c3b30093ff07000000e00095
:1022bc00020032001000200016003700d0822000ef
:1022cc000100200009050700c0c0b3008aff070009
:1022dc000000e00002003200100020000d0037006a
:1022ec00d0822000010020000005070010c0b300c0
:1022fc0081ff07000000e000020032001000200007
:10230c00040037001013220021002000f7040700fe
:10231c000000eb000080fa00000006000400fa0048
:10232c00000f7800214798009e00780011828800e9
:10233c00ae40900042042100014978004070ef004b
:10234c0050c6b3003ef0b7000080fa000000060053
:10235c000000fa0040d0bf000080fa000000060028
:10236c000000fa004070ef000080fa000000060048
:10237c000a00fa0060479800410798000040eb0003
:10238c0010479800ce0090001107980050cab30077
:10239c00befc0700a0c5b300bcfc070000c8b3001e
:1023ac00bafc07006e409000b8fc07000040eb0040
:1023bc00004f78000d0037001e0090009040780010
:1023cc00414798001e0090000000e800100798009c
:1023dc009e4090004e40900000c06800104798004e
:1023ec004e409000a9fc07001e4fe8006e40900084
:1023fc009e40780080cf5000efff39001e409000c7
:10240c00a2fc07000080fa00000006000200fa009f
:10241c0010118000620060000000e0000200320039
:10242c002222a9008a00370030118000004f78006a
:10243c003ed0bf000080fb0071062000810f5000d1
:10244c002500320071062000810f500007003c006f
:10245c0051062000810f50000e0032006106200052
:10246c00810f5000120032005e00370091062000f0
:10247c00810f50003200320091062000810f500075
:10248c001f003500a1062000810f500036003200dd
:10249c005400370050cab3009e40780080cf5000e3
:1024ac0068003a0060c6b3003ef0b7006800370021
:1024bc00a0c5b3009e40780080cf500003003a00c6
:1024cc0070c6b3003ef0b7006100370050c6b300d1
:1024dc003ef0b7005e00370000c8b3009e407800a5
:1024ec0080cf500003003a0080c6b3003ef0b70026
:1024fc005700370050c6b3003ef0b7005400370009
:10250c001e4078000004e0000a00320000c5b30051
:10251c009e40780080cf500006003e001e4178009f
:10252c00f1032100824878004170ef003e70ef000b
:10253c004700370050c6b3003ef0b70044003700e8
:10254c0041d0bf009e40780080cf500003003a007d
:10255c00a0c6b3003ef0b7003d00370050c6b30034
:10256c003ef0b7003a0037001e407800e44f5000b0
:10257c0019003a00f10321009140780044d0bf00cb
:10258c0080cf50000200360044d0bf003ff0b700af
:10259c000040eb00004f78000900370011828000ea
:1025ac001e80fb00008040009e80fb00a20a2100e0
:1025bc008100410091407800014878001e4fe800ee
:1025cc003fd0bf009e40780080cf5000f3ff390011
:1025dc003fd0bf0040f0b70050c6b3003ef0b7008c
:1025ec001b00370041d0bf001e40680041f0b7000f
:1025fc00e103210091407800f0c2b30080cf50007d
:10260c0005003e003ed0bf000080fb00a10a210067
:10261c00008040001e4878003ed0bf000040e8001b
:10262c003ef0b700e1032100914078003fd0bf009d
:10263c0080cf50000500390090c6b3003ef0b700c3
:10264c00030037000000000001003700000000000c
:10265c000080fa00000006000000fa00008820004c
:10266c00101388001000200020138800c0002800e0
:10267c00001388000080fa00000006000400fa0035
:10268c00000f780011079800000000000013800074
:10269c00620060000000e000fcff3a001e007800c1
:1026ac00104078000080fb00401388000000000000
:1026bc000113800000022000008060000000e00098
:1026cc00fbff3a0040138000804078001e00900011
:1026dc00014878000080fa00000006001800fa009b
:1026ec00100f9800210f9800320f98000000eb009b
:1026fc00000f78000000eb00100798000000eb00c2
:10270c00700798000000eb00000f980010002000ec
:10271c00600798001e0890000000e00005003a00d9
:10272c000000eb005007980070004700200798004d
:10273c0004003700ee009000510798009e089000ae
:10274c00210798003e0890000000e00005003a00c8
:10275c000000eb00400798006e004700300798001f
:10276c0005003700ee00900041079800be0890006d
:10277c003107980000000000001380006200600028
:10278c000000e000fcff3a001d0037000013800041
:10279c00620060000000e00009003a002e0090008a
:1027ac00104078000080fb0040138800ae009000c1
:1027bc005e00900000804000200798001e0fe8008b
:1027cc000113800000022000008060000000e00087
:1027dc000b003a0040138000804078003e009000cf
:1027ec0001487800be0090004e0090000080400030
:1027fc00300798001e0090000000e80010079800b9
:10280c002e0890009e007800808f5000dfff39006a
:10281c0010003700011380000002200000806000cf
:10282c000000e0000b003a0040138000804078006c
:10283c003e00900001487800be0090004e009000d1
:10284c0000804000300798001e0090000000e80057
:10285c00100798009e0090002e089000808f50006a
:10286c00ecff39001e0078000080fa000000060022
:10287c000400fa00204798000e80e8008e007800d3
:10288c007eff07001e4078000080fa000000060062
:10289c000600fa00000f7800110798002207980034
:1028ac002e0190009e0090001e0078008bff070008
:1028bc000080fa00000006000000fa0011138000ee
:1028cc0000402000008060000000e00002003a00a0
:1028dc000000eb0001003700100020000080fa001f
:1028ec00000006000000fa00001380000080fa00cf
:1028fc00000006000000fa00022cef0000902100fe
:10290c0020608800062cef000a2cef001a2cef0038
:10291c001e2cef0000082000006188000008200039
:10292c00006288000008200000638800000c2b0067
:10293c00e3c1200011322400d2bc2a0082097800a5
:10294c008109780010618800000c2b00e3c1200085
:10295c0011322400d2bc2a00820978008109780047
:10296c0010628800000c2b00e3c1200011322400ff
:10297c00d2bc2a0082097800810978001063880093
:10298c00b00f2000e3c1200011322400d2bc2a0079
:10299c00820978008109780020618800b00f20003e
:1029ac00e3c1200011322400d2bc2a008209780035
:1029bc008109780020628800b00f2000e3c120005c
:1029cc0011322400d2bc2a008209780081097800d7
:1029dc0020638800262cef00462cef00662cef00bd
:1029ec00282cef00482cef00682cef00400620004c
:1029fc00506188004006200050628800400620008c
:102a0c00506388002c2cef004c2cef006c2cef004a
:102a1c00322cef00522cef00722cef00342cef0014
:102a2c00542cef00742cef00382cef00582cef00d6
:102a3c00782cef003a2cef005a2cef007a2cef0098
:102a4c003c2cef005c2cef007c2cef003e2cef00bc
:102a5c005e2cef007e2cef00000028000060880048
:102a6c000080fa00000006000000fa000080fa0066
:102a7c00000006000000fa00314080000020200019
:102a8c00008060000000e00002003200f6ff07004a
:102a9c000728a9000080fa00000006000000fa00d8
:102aac000080fa00000006000000fa0031408000af
:102abc0000202000008060000000e00002003200d6
:102acc00f6ff07000bc8a9000080fa000000060002
:102adc000000fa000080fa00000006000000fa0076
:102aec003140800000202000008060000000e000e9
:102afc0002003200f6ff07000be8a9000080fa0084
:102b0c00000006000000fa000080fa000000060039
:102b1c000000fa003140800000202000008060009e
:102b2c000000e00002003200f6ff07000c08a900cc
:102b3c000080fa00000006000000fa0014aea900a4
:102b4c0018aea80014cea90018cea800b00820001a
:102b5c0001002000e502070018aea900b008200013
:102b6c0001002000e102070018cea9000000eb00d4
:102b7c000080fa00000006000000fa0014aea90064
:102b8c0018aea90014cea90018cea800b0082000d9
:102b9c0001002000d502070014aea80014cea80036
:102bac000000eb000080fa00000006000400fa00b0
:102bbc002047980014aea90014cea900ae40900096
:102bcc00014f780080c0b300104798001400370004
:102bdc001e4078000004e00002003d0018aea80082
:102bec000100370018aea9001e40780000404000dc
:102bfc00004f780018cea8007011200001002000b2
:102c0c00ba02070018cea900100d20000100200008
:102c1c00b60207001e4090000040e90010479800e3
:102c2c001e4090000004e000e9ff3a0014aea8003a
:102c3c000000eb000080fa00000006000200fa0021
:102c4c0014aea80014cea90080c0b30010479800a1
:102c5c00130037005004200001002000a3020700dd
:102c6c0018cea8001e40780000404000004f7800ad
:102c7c00b170800000022000008060000000e000c5
:102c8c00020032001e04a000010037001e04a10047
:102c9c0018cea9001e4090000040e9001047980093
:102cac001e4090000004e000eaff3a001e4078004d
:102cbc000080fa00000006000200fa0014aea80022
:102ccc0014cea90018cea80050042000010020004a
:102cdc0086020700b07080004500de006140600095
:102cec00004f780018cea9001e4078000080fa0032
:102cfc00000006000000fa0014aea90018aea900ee
:102d0c0014cea90050042000010020007702070017
:102d1c0018cea800b00820000100200073020700a4
:102d2c0018cea90014aea8000000eb000080fa0039
:102d3c00000006000000fa0014aea90018aea800ae
:102d4c0014cea90018cea8005004200001002000c9
:102d5c006602070018cea9005004200001002000d4
:102d6c006202070014aea8000000eb000080fa001d
:102d7c00000006000000fa00003a80000080fa0013
:102d8c00000006000200fa00faff0700000f7800ae
:102d9c001e007800240007000004e000020032004e
:102dac0000002800710007001e0078002a000700b0
:102dbc000004e00002003200000024006b00070059
:102dcc001e007800320007000004e0000200320010
:102ddc0000202000650007001e0078003a00070064
:102dec000004e00002003200000820005f00070031
:102dfc001e007800420007000004e00002003200d0
:102e0c0000042000590007001e0078004a0007004b
:102e1c000004e00002003200000120005300070013
:102e2c000080fa00000006000400fa001007980069
:102e3c000040eb00004f78001e0090000000e00006
:102e4c0002003d0010c0b300004f78001e40780017
:102e5c000080fa00000006000400fa001007980039
:102e6c000040eb00004f78009e0090000000240012
:102e7c00008060000000e0000200320010c0b300cf
:102e8c00004f78001e4078000080fa000000060019
:102e9c000400fa00100798000040eb00004f780087
:102eac009e00900000202000008060000000e000e8
:102ebc000200320010c0b300004f78001e407800b2
:102ecc000080fa00000006000400fa0010079800c9
:102edc000040eb00004f78009e009000000820009e
:102eec00008060000000e0000200320010c0b3005f
:102efc00004f78001e4078000080fa0000000600a9
:102f0c000400fa00100798000040eb00004f780016
:102f1c009e00900000042000008060000000e00093
:102f2c000200320010c0b300004f78001e40780041
:102f3c000080fa00000006000400fa001007980058
:102f4c000040eb00004f78001e0090007000600005
:102f5c000000e0000200320010c0b300004f780007
:102f6c001e4078000080fa00000006000200fa0003
:102f7c00000f78009e80ea00003a8000008060001c
:102f8c00003a88000080fa00000006000000fa00f9
:102f9c004027ef000080fa00000006000000fa0055
:102fac000a21ef0000022000700888000621ef00c3
:102fbc000c21ef00800028008008880070828000bf
:102fcc000000e00002003a000087210044000700e6
:102fdc000108a9002108a800001121008040eb0085
:102fec00014878000080fa00000006000400fa0096
:102ffc00008fbe001e007800600888001e0078005c
:10300c009e0090004008de000000780070088800e8
:10301c000080fa00000006000400fa000080eb00bb
:10302c008080eb00008fbe00700880008000eb00f9
:10303c00c001dd0002002000600880008000eb0071
:10304c00001f7100019771001e0078009e00900017
:10305c000080fa00000006000400fa00008fbe0099
:10306c001e0078009e0090004008de0000007800f2
:10307c00400888001e007800300888000080fa00a4
:10308c00000006000800fa000080eb008080eb00d6
:10309c00008fbe0031088000210798004108800095
:1030ac00310798003e0090008000eb00c001dd006d
:1030bc00020020002e0090008000eb00001f710029
:1030cc00019771001e0078009e0090000080fa00ad
:1030dc00000006000000fa000080fa000000060064
:1030ec000200fa00000f78002108a9009e00780069
:1030fc00718288002108a8000080fa0000000600f8
:10310c000000fa00001121008040eb00014878001b
:10311c002108a80011e1a8000080fa0000000600b8
:10312c000000fa0011e1a9002108a9000080fa00b2
:10313c00000006000200fa0000112100104f780078
:10314c001e4078000004e000030032000011210052
:10315c008040eb00014878001e4078000080fa00a7
:10316c00000006000000fa00101121001040780049
:10317c000080fb000080fa00000006000000fa004e
:10318c00101121008040eb00014878000080fa000b
:10319c00000006000000fa000081200000588800a2
:1031ac00d000200010588800062bef0000002100f2
:1031bc00205888000a2bef00082bef000c2bef0097
:1031cc000e2bef000088a90000802000805888009a
:1031dc00d000200090588800162bef000000210032
:1031ec00a05888001a2bef00182bef001c2bef00b7
:1031fc0020002000f058880001c8a900202bef0007
:10320c00222bef00262bef00000021002059880014
:10321c002a2bef00282bef002c2bef002e2bef008e
:10322c000308a900302bef00322bef00362bef00f8
:10323c0000002100a05988003a2bef00382bef003a
:10324c003c2bef003e2bef000488a90011eba800eb
:10325c000080fa00000006000000fa000080fa006e
:10326c00000006000000fa000040800070006000c2
:10327c000000e00002003200f7ff07000088a90000
:10328c000080fa00000006000000fa000080fa003e
:10329c00000006000000fa0001408000000024003d
:1032ac00008060000000e00002003200f6ff070022
:1032bc0001c8a9000080fa00000006000000fa0016
:1032cc000080fa00000006000000fa0011408000a7
:1032dc0000102000008060000000e00002003200be
:1032ec00f6ff07000308a9000080fa0000000600a2
:1032fc000000fa000080fa00000006000000fa004e
:10330c0020408000700060000000e00002003200ed
:10331c00f7ff07000488a9000080fa0000000600ef
:10332c000000fa00042eef0000302000c07088006e
:10333c003001200000708800f06f2000a070880021
:10334c000c2eef00202eef000a2eef0000202000a4
:10335c00f0708800062eef001a2eef0030012000ce
:10336c0070708800222eef00113a8000f00b2000c4
:10337c00008160006004200071052000237420008f
:10338c00804978008149780082497800b133800007
:10339c0000fc2f00008060000000a000b03388000b
:1033ac0070c2b300c4e6b700103a80000001780088
:1033bc000260a0006004200071052000237420002e
:1033cc008049780081497800824978000080fa00b1
:0433dc0000000600e7
:020000040000fa
:1033e000da10000020000000800000004c100000f7
:1033f0000200000082000000ffff0000101100002a
:1034000002000000800000004e10000002000000da
:10341000800000005010000002000000800000004a
:10342000fa100000120000008000000030100000c0
:103430000e000000800000004610000006000000a2
:1034400080000000aa100000300000008000000092
:103450003e10000008000000800000000c11000079
:10346000040000008200000082022e009000000094
:103470005210000058000000800000000010000002
:0c34800030000000800000000000000090
:020000040000fa
:10348c000000fa00404e28000019880080402000ff
:10349c0010198800f0812100201988002823ef00e2
:1034ac00001020007019880030002000801988005e
:1034bc0000102000901988002623ef00c0a62100e0
:1034cc00050007000080fa00000006000000fa006a
:1034dc000080fa00000006000200fa00000f7800dd
:1034ec001e007800808288000080fa000000060030
:1034fc000000fa0001408000000022000080600003
:10350c000000e00006003200808280000000e00035
:10351c0002003200808280000000010001a8a90096
:10352c000080fa00000006000000fa0000202300d2
:10353c00203a88004827ef004e27ef00d0122000d9
:10354c00303a88006027ef006227ef006427ef0015
:10355c006627ef006a27ef006c27ef006e27ef005d
:10356c001200200080072000a109200033742000e5
:10357c008049780081497800824978001200200047
:10358c00600420007105200023742000804978001d
:10359c00814978008249780000000000103a8000d0
:1035ac00610060000000e000fcff3a000000000039
:1035bc00113a800000022000008060000000e00052
:1035cc00fbff32000080fa00000006000200fa0047
:1035dc00000f780021028000200f20000080600086
:1035ec001e007000200288000080fa000000060017
:1035fc000000fa00c3e8a800000000000000000072
:10360c000080fa00000006000000fa0044ff0700ea
:10361c000a000700c4ff0700cef7070098ff070059
:10362c005efe0700dbfe0700f1ff07000002200032
:10363c00e6ff07000080fa00000006000000fa0018
:10364c0011428000f0ff28000080600000c0a00044
:10365c00104288002142800080ff2f000080600013
:10366c000000a0002042880001438000f0f82f00e9
:10367c00008060000040a0000043880031428000c0
:10368c0080ff2f00008060000000a0003042880006
:10369c0021428000f0ff28000080600000c0a000e4
:1036ac00204288000080fa00000006000000fa00aa
:1036bc009dff07000080fa00000006000000fa00e1
:1036cc00003a80000080fa00000006000000fa00ba
:1036dc00acfd07000080fa00000006000000fa00b4
:0c36ec002afe07000080fa000000060023
:020000040000fa
:1036f800f03fb1000180b10006003500ee0309007b
:1037080000000000403fb1000180b100fbff3d0018
:103718001000b000203fb000020035000080090012
:08372800000000000000060093
:020000040000fa
:10373000000f78009e00780061828800ffff37004c
:103740000000fa00a00d210080077800200f210062
:0c375000000188000080fa000000060064
:020000040000fa
:020000040005f5
:04570000ffffff00a8
:020000040000fa
:020000040005f5
:04572000ffff000087
:020000040000fa
:020000040005f5
:04573000f8ff00007e
:020000040000fa
:020000040005f5
:045738007bff0000f3
:020000040000fa
:020000040005f5
:04574000f8ff00006e
:020000040000fa
:020000040005f5
:04574800ffff00005f
:020000040000fa
:020000040005f5
:04575000fdff000059
:020000040000fa
:020000040005f5
:04575800000000004d
:020000040000fa
:020000040005f5
:045760000000000045
:020000040000fa
:020000040005f5
:04576800000000003d
:020000040000fa
:020000040005f5
:045770000000000035
:020000040000fa
:020000040005f5
:04577800feff000030
:020000040000fa
:020000040005f5
:04578000ffff000027
:020000040000fa
:020000040005f5
:04578800ffff00001f
:00000001FF
